{
  "_format": "hh-sol-artifact-1",
  "contractName": "gasChallenge",
  "sourceName": "contracts/gasChallenge.sol",
  "abi": [
    {
      "inputs": [],
      "name": "getSumOfArray",
      "outputs": [
        {
          "internalType": "uint256",
          "name": "",
          "type": "uint256"
        }
      ],
      "stateMutability": "view",
      "type": "function"
    },
    {
      "inputs": [],
      "name": "notOptimizedFunction",
      "outputs": [],
      "stateMutability": "nonpayable",
      "type": "function"
    },
    {
      "inputs": [],
      "name": "optimizedFunction",
      "outputs": [],
      "stateMutability": "nonpayable",
      "type": "function"
    }
  ],
  "bytecode": "0x6080604052604051806101400160405280600160ff168152602001600260ff168152602001600360ff168152602001600460ff168152602001600560ff168152602001600660ff168152602001600760ff168152602001600860ff168152602001600960ff168152602001600a60ff16815250600090600a610082929190610095565b5034801561008f57600080fd5b506100f7565b82600a81019282156100c9579160200282015b828111156100c8578251829060ff169055916020019190600101906100a8565b5b5090506100d691906100da565b5090565b5b808211156100f35760008160009055506001016100db565b5090565b6102a1806101066000396000f3fe608060405234801561001057600080fd5b50600436106100415760003560e01c806368b5f223146100465780637ce418941461005057806380d2c8031461005a575b600080fd5b61004e610078565b005b6100586100b4565b005b61006261010c565b60405161006f9190610176565b60405180910390f35b60005b600a8110156100b15760008082600a811061009957610098610191565b5b018190555080806100a9906101ef565b91505061007b565b50565b6000805b600a81101561010857600081600a81106100d5576100d4610191565b5b01548201915060008082600a81106100f0576100ef610191565b5b01819055508080610100906101ef565b9150506100b8565b5050565b6000806000905060005b600a81101561015557600081600a811061013357610132610191565b5b0154826101409190610237565b9150808061014d906101ef565b915050610116565b508091505090565b6000819050919050565b6101708161015d565b82525050565b600060208201905061018b6000830184610167565b92915050565b7f4e487b7100000000000000000000000000000000000000000000000000000000600052603260045260246000fd5b7f4e487b7100000000000000000000000000000000000000000000000000000000600052601160045260246000fd5b60006101fa8261015d565b91507fffffffffffffffffffffffffffffffffffffffffffffffffffffffffffffffff820361022c5761022b6101c0565b5b600182019050919050565b60006102428261015d565b915061024d8361015d565b9250828201905080821115610265576102646101c0565b5b9291505056fea26469706673582212207f18084a29dcf8f33baf0d4ad0d3bba4f637be2b17450d230da04b5142d88fbf64736f6c63430008120033",
  "linkReferences": {},
  "deployedLinkReferences": {}
}